:020000040800F2
:1000000050240020AD0200084D270008B702000868
:100010004B2700087B080008F137000800000000AB
:10002000000000000000000000000000FD2B0008A0
:100030005D090008000000004F270008012C00089F
:10004000C7020008C7020008C7020008C70200086C
:10005000C7020008C7020008C7020008C70200085C
:10006000C7020008C7020008C7020008C70200084C
:10007000C7020008C7020008C7020008C70200083C
:10008000C7020008C7020008C7020008C70200082C
:10009000C7020008C7020008C7020008C70200081C
:1000A000C7020008C7020008C7020008C70200080C
:1000B000CD2D0008C7020008C7020008C7020008CB
:1000C000C7020008C7020008C7020008C7020008EC
:1000D000C702000895350008C7020008A1350008CE
:1000E000C7020008C702000800000000C70200089D
:1000F000C7020008C7020008C7020008C7020008BC
:10010000C7020008C7020008C7020008C7020008AB
:10011000C7020008C7020008C7020008C70200089B
:10012000C7020008C7020008C7020008C70200088B
:10013000C7020008C7020008C7020008C70200087B
:1001400000000000000000000000000000000000AF
:10015000C7020008C7020008C7020008C70200085B
:10016000C7020008C7020008C7020008C70200084B
:10017000C7020008C7020008C7020008000000000C
:10018000C7020008C7020008C7020008C70200082B
:10019000C7020008C7020008C7020008C70200081B
:1001A000C7020008C7020008C7020008C70200080B
:1001B000C7020008C7020008C7020008C7020008FB
:1001C000C7020008C7020008C7020008C7020008EB
:1001D000C7020008C7020008C7020008C7020008DB
:1001E000C7020008C7020008C7020008C7020008CB
:1001F000C7020008C7020008C7020008C7020008BB
:10020000C7020008C7020008C7020008C7020008AA
:10021000C7020008C7020008C7020008C70200089A
:10022000C7020008C7020008C7020008000000005B
:10023000C7020008C702000800000000C70200084B
:10024000C7020008C7020008C7020008C70200086A
:10025000C7020008C7020008C7020008C70200085A
:10026000C7020008C7020008C7020008C70200084A
:10027000C7020008C7020008C7020008000000000B
:10028000C702000800000000C702000800000000CC
:1002900000000000C7020008DFF80CD000F06CFA84
:1002A000004800473D47000850240020064880478A
:1002B00006480047FEE7FEE7FEE7FEE7FEE7FEE74B
:1002C000FEE7FEE7FEE7FEE7452D0008990200087D
:1002D0002DE9F05F0546002092469B46884606467B
:1002E000814640241BE0284641464746224600F00E
:1002F0007BF853465A46C01A914110D3114618460E
:10030000224600F062F82D1A67EB01084F4622469C
:100310000120002100F059F817EB00094E41201E82
:10032000A4F10104DFDC484631462A464346BDE8D5
:10033000F09FD2B201E000F8012B491EFBD27047BA
:100340000022F6E710B513460A4604461946FFF7A1
:10035000F0FF204610BD421C10F8011B0029FBD104
:10036000801A704710B5002200E0521C835C8C5C40
:10037000A34201D1002BF8D1D8B2E1B2401A10BD8E
:1003800030B505460020034600E05B1C934205D2D1
:10039000EC5CC85C201A01D1002CF6D130BD30B520
:1003A0000B46014600202022012409E021FA02F533
:1003B0009D4205D303FA02F5491B04FA02F52844CD
:1003C000151EA2F10102F1DC30BD202A04DB203A27
:1003D00000FA02F1002070479140C2F1200320FA98
:1003E00003F3194390407047202A04DB203A21FA96
:1003F00002F00021704721FA02F3D040C2F120023E
:1004000091400843194670472DE9FE4F804681EA26
:100410000300C00F0C46009021F0004123F000457E
:10042000B8EB0200A94105D24046214690461C4641
:100430000B46024623F00040104347D0270DC7F378
:100440000A00C3F30A510290401A019040286BDA67
:10045000C3F3130040F4801B0098924620B10023A0
:10046000D2EB030A63EB0B0B01985946C0F1400233
:100470005046FFF7AAFF06460D4650465946019AD8
:1004800000F08CF910EB08006141002487EA11525A
:1004900084EAE7731A4340D0009A62B3019A012AB2
:1004A0004FEA075215DC001B61EB02014FF00042DE
:1004B00002EA0752CDE90042001C41F580113246A4
:1004C0002B4600F08CF903B0BDE8F08F4046214682
:1004D000F9E7001B61EB0201001C41F580130018D5
:1004E0005B412018A2F5001747EB030140EAD570E5
:1004F000B6196D4111E06D084FEA360645EAC07540
:100500004FEA0752001B61EB0201001C41F580110C
:1005100049084FEA30000019514132462B4603B0DA
:10052000BDE8F04F00F04CB90098012240000023D4
:10053000D0EB020263EBE073009821464FEAE074CF
:10054000B8EB000061EB0401E9E783F000435BE7EF
:1005500081F0004158E72DE9FE4F81EA030404F0E1
:10056000004421F0004100944FF0000B23F00043C1
:1005700050EA01045ED052EA03045BD0C3F30A548C
:10058000C1F30A552C44A4F2F3340194A0FB0254A5
:10059000C1F3130141F48011C3F3130343F4801337
:1005A00001FB024400FB034E840A970A44EA81548B
:1005B00047EA8357A4FB076802958D0A05FB078568
:1005C0004FEA932C04FB0C542705029D4FEA065872
:1005D00047EA1637B5EB08056EEB070C870E920E4F
:1005E00047EA811742EA8312A7FB0201B6EB0B012F
:1005F00064EB00042B0D43EA0C335E1844EB1C50F3
:10060000DA465146E7FB0201C5F313044FEA0B3308
:1006100043EA14534FEA0432019C43EA0603A4F16F
:100620000C040294009CCDE900B400F0D8F803B0AB
:10063000BDE8F08F00200146F9E72DE9F04D81EA91
:10064000030404F0004B21F0004514464FF0000A6B
:1006500023F0004150EA050220D054EA01021DD0E7
:10066000C5F30A570246C5F31303C1F31300C1F3E0
:100670000A5640F4801543F48013A7EB0608101BBC
:10068000D64608F2FD3873EB050002D308F10108E5
:1006900001E092185B41B8F1000F03DA0020014637
:1006A000BDE8F08D00204FF48011064684460EE030
:1006B000171B73EB050705D3121B63EB05030643FA
:1006C0004CEA010C49084FEA300092185B4150EAAD
:1006D0000107EDD152EA030012D082EA040083EA56
:1006E0000501084305D0101BAB4106D201220023AF
:1006F00006E000224FF0004302E06FF001025310C9
:100700001AEB06004CEB085110EB0A0041EB0B0111
:10071000BDE8F04D00F054B8C1F30A52C1F3130123
:1007200040F2FF3341F480119A4202DA0020014680
:10073000704740F233439A42A2F2334202DC524203
:10074000FFF752BEFFF741BE30B5041E71F1000441
:1007500004DB4FF00044404264EB0101141E73F1CE
:10076000000405DB1C464FF00043524263EB0403D8
:10077000994208BF904230BD064C074D06E0E06844
:1007800040F0010394E8070098471034AC42F6D3D8
:10079000FFF786FDF05E0008105F0008202A06DBE8
:1007A000CB17203A41FA02F043EAE07306E041FA3F
:1007B00002F3D040C2F1200291400843194670472D
:1007C00010B5141E73F1000408DA401C41F1000159
:1007D00092185B411A4301D120F0010010BD2DE9B0
:1007E000F04D92469B4611B1B1FA81F202E0B0FAA7
:1007F00080F220329046FFF7E8FD04460F4640EABB
:100800000A0041EA0B0153465A46084313D01146E9
:1008100053EA010019D0C8F140025046FFF7E4FD49
:1008200005460E46504659464246FFF7CEFD084360
:1008300005D0012004E020463946BDE8F08D0020B7
:10084000054346EAE0762C4337430A986305E40AF9
:10085000A0EB08000022FD0A44EA47540A3002D502
:1008600000200146E9E7010510196941DDE9084565
:1008700000196941BDE8F04DA2E7FEE7F0B5BFF30E
:100880004F8FBFF36F8F1A4900200860BFF34F8F5F
:10089000BFF36F8F174A116841F400311160BFF345
:1008A0004F8FBFF36F8F134970310860BFF34F8FC5
:1008B000081F43F6FF7400680D4D1035C0F34E312C
:1008C000C0F3C90304EA4116184600BF46EA807720
:1008D0002F60401EFAD2491EF4D2BFF34F8F10682A
:1008E00040F480301060BFF34F8FBFF36F8FF0BDC7
:1008F00050EF00E014ED00E010B5A0B1012810D0D9
:10090000022812D003280CD004280AD0052808D0C9
:10091000062806D0072804D04FF48E7104A000F0FA
:100920001EF8002010BD0B4810BD0B4810BD000084
:100930002E2E5C2E2E5C557365725C6273705C7338
:1009400072635C6273705F756172745F6669666F13
:100950002E6300006C0100209809002070470029D8
:1009600000D0FEE770470000F0B5B3F5804F05D02A
:100970006FF0704140F822100020F0BD8C688E8925
:10098000D1E9003725028C6950F8221045EA064566
:1009900043EA0713034F2B43394023430B4340F8EB
:1009A0002230E9E70000F0CF2DE9F043D1E902C899
:1009B0004A68D1E9045342EA0C0248EA050842EACF
:1009C000080242EA030251F8183BBCF1080F9946AD
:1009D00091E8F01150F8233042EA04028C6942EAAF
:1009E00005020D6A42EA0602CE6942EA0702144F86
:1009F00042EA080242EA0C0242EA040242EA050222
:100A000003EA070342EA060242EA0302A1F11801DF
:100A100001D142F0400240F829200A6BB2F5801F54
:100A200005D10A684AB1026842F4801202600A687D
:100A30001AB10268496B0A4302600020BDE8F083E6
:100A40008004C0FFF0B58C6800EB8202B1F80CC0E6
:100A5000D1E900360D8A2702124C47EA0C4743EAD7
:100A600006130E7D3B4304EB055C55686701D1F826
:100A700018E043EA0C0307EB0666334305F04045F4
:100A800043EA0E032B4353600268D20207D5098A5A
:100A9000426804EB015122F47002114341600020CE
:100AA000F0BD00000000F0FF0248016841F00101C4
:100AB00001607047200400582DE9F84F6F4D002267
:100AC0004FF001094FF0030E4FF00F0B0B6809FABE
:100AD00002F803EA0803434574D14C68022C01D0A4
:100AE000122C0FD1D4080E69570700EB8404A246DC
:100AF000246AFF0E0BFA07FCBE4024EA0C042643CE
:100B0000CAF820600F79540006680EFA04FC07F05A
:100B1000030726EA0C06A740374307604E68012EFC
:100B200005D0022E03D0112E01D0122E0FD18668CF
:100B3000CF6826EA0C06A7403743876046680F79DE
:100B400026EA0806C7F30017974037434760C7688F
:100B50008E6827EA0C07A6403E43C6604C68E40056
:100B600030D5474C266846F002062660246822F0FD
:100B7000030606F1B04604F0020400949407270F20
:100B8000D6F80844DFF8FC800BFA07FC404524EA5D
:100B90000C0402D14FF0000C41E0DFF8ECC06045DE
:100BA00002D14FF0010C3AE0DFF8E0C0604502D11D
:100BB0004FF0020C33E0DFF8D8C0604503D14FF0AE
:100BC000030C2CE053E0DFF8CCC0604502D14FF0BD
:100BD000040C24E0DFF8C0C0604502D14FF0050CE2
:100BE0001DE0DFF8B8C0604502D14FF0060C16E0FA
:100BF000DFF8ACC0604502D14FF0070C0FE0DFF822
:100C0000A4C0604502D14FF0080C08E0DFF898C09E
:100C1000604502D14FF0090C01E04FF00A0C0CFACC
:100C200007FC4CEA040CC6F808C42C684E6824EA99
:100C30000304F60300D51C432C606C684E6824EA5C
:100C40000304B60300D51C436C604FF0B0444F68FA
:100C50002668FF0226EA030600D51E4326604F6879
:100C60006668BF0226EA030600D51E436660521C72
:100C7000102AFFF42BAFBDE8F88F00008000005869
:100C8000F4440258000002580004025800080258B8
:100C9000000C0258001002580014025800180258A4
:100CA000001C0258002002580024025801488068A5
:100CB0007047000008000020024881680278114453
:100CC0008160704708000020032010B500F0A6F8EE
:100CD0000F2000F007F808B1012010BD00F070F8F7
:100CE000002010BD70B50D4D04464FF47A700C4ACB
:100CF00029781268B0FBF1F0B2FBF0F001F0A7FA2E
:100D000048B9102C07D200222146501E00F066F888
:100D100000206C6070BD012070BD00000800002044
:100D200000000020F0B5154C4378211D0A1D2360FA
:100D30000378F3B143680B60057BC67A817A437B05
:100D40002D07847B45EA0665C77B90F809C0067AC3
:100D500090F800E045EAC14040EA834040EA444060
:100D600040EA074040EA0C2040EA460040EA0E0014
:100D700001E0002008601060F0BD000098ED00E088
:100D8000BFF35F8F044800210368034A23F48033D4
:100D9000036070321160704724ED00E0074A40F0B4
:100DA0000100064970321060086840F48030086025
:100DB000BFF34F8FBFF36F8F7047000024ED00E04B
:100DC0007047002809DB410900F01F02890001205B
:100DD00001F1E0219040C1F8000170470E4BF0B4E2
:100DE0001B680D46C3F30223C3F10706042E00D986
:100DF0000426191D072901D2002300E0DB1E01246F
:100E000004FA06F19C40491E2940641E9940144092
:100E10002143F0BC02F014BD0CED00E0064900F0E7
:100E2000070210B54FF6FF040868044B204040EA63
:100E300002201843086010BD0CED00E00000FA0528
:100E400010B500F0DDFE08494FF480730A6893FA8C
:100E5000A3F3064902F47062B3FA83F3DA40044B59
:100E60009A5CD040086010BD184402580000002071
:100E7000C05A000810B500F07DFE0749102209682D
:100E800092FAA2F201F07001B2FA82F2D140034A62
:100E9000515CC84010BD000020440258C05A0008F0
:100EA000424A30B5414D141D13681435DFED400A38
:100EB0001268291FB7EE001A24682D6813F0030387
:100EC00004F01004C2F30532C5F3CC0515FB04F49D
:100ED00000EE104AB8EE400A05D0364C012B5DD02A
:100EE000022B5BD159E0314C334B283C2568AD06D1
:100EF00015D525680C68C5F3C105C4F30804EB409B
:100F000001EE904AB3FBF2F2F8EE611A40EE201ABD
:100F100000EE102A71EE810AB8EE400A10E00C686B
:100F2000B3FBF2F2C4F3080401EE904AB8EE612A72
:100F300001EE902A00EE202AB8EE610A72EE010A54
:100F40000A6820EE200AC2F34622521C00EE902AC4
:100F5000F8EE600A80EE201AFCEEC10AC0ED000A2D
:100F60000A68C2F30642521C00EE902AF8EE600AAC
:100F700080EE201AFCEEC10AC0ED010A0968C1F337
:100F80000661491C00EE901AF8EE600A80EE201A05
:100F9000BCEEC10A80ED020A30BD084C0B68B4FB00
:100FA000F2F2C3F3080301EE903ABFE72844025877
:100FB0000000003900093D000090D00340787D0119
:100FC000424A30B5414D141D13681C35DFED400A0F
:100FD0001268291FB7EE001A24682D6813F0030366
:100FE00004F48074C2F30552C5F3CC0515FB04F478
:100FF00000EE104AB8EE400A05D0364C012B5DD009
:10100000022B5BD159E0314C334B283C2568AD06AF
:1010100015D525680C68C5F3C105C4F30804EB4079
:1010200001EE904AB3FBF2F2F8EE611A40EE201A9C
:1010300000EE102A71EE810AB8EE400A10E00C684A
:10104000B3FBF2F2C4F3080401EE904AB8EE612A51
:1010500001EE902A00EE202AB8EE610A72EE010A33
:101060000A6820EE200AC2F34622521C00EE902AA3
:10107000F8EE600A80EE201AFCEEC10AC0ED000A0C
:101080000A68C2F30642521C00EE902AF8EE600A8B
:1010900080EE201AFCEEC10AC0ED010A0968C1F316
:1010A0000661491C00EE901AF8EE600A80EE201AE4
:1010B000BCEEC10A80ED020A30BD084C0B68B4FBDF
:1010C000F2F2C3F3080301EE903ABFE72844025856
:1010D0000000003900093D000090D00340787D01F8
:1010E0002DE9FC5F044650F8241B002500902E4695
:1010F0000801FE4FDFF8F8931DD5606E50B1B0F5D2
:10110000801F0CD0B0F5001F0ED0B0F5401F1DD0D1
:1011100001250FE0386840F40030386016E0022105
:10112000201D01F045FC03E00098022101F0BEFC07
:1011300005000BD02E462088C00523D5606D0528FC
:101140001ED2DFE800F00C11161B1B00626ED9F8EE
:10115000001021F440111143C9F80010EBE7386882
:1011600040F40030386009E00021201D01F020FC2F
:1011700003E00098002101F099FC05466DB100E004
:1011800001252E432088800528D5A06D80281ED0FB
:101190000CDC90B140280ED114E0626DD9F800103B
:1011A00021F007011143C9F80010EBE7C02813D064
:1011B000B0F5807F10D001250FE0386840F4003092
:1011C000386009E00021201D01F0F2FB03E00098E7
:1011D000002101F06BFC054695B12E432088DFF815
:1011E0001083400508F108082CD5D4F8A400B0F508
:1011F000800F20D00DDCA0B1B0F5001F0FD115E09D
:10120000A26DD9F8001021F4E0711143C9F8001063
:10121000E4E7B0F5C00F13D0B0F5000F10D00125F2
:101220000FE0386840F40030386009E00021201DEC
:1012300001F0BEFB03E00098002101F037FC0546F9
:1012400075B12E43208800052DD5D4F8A800B0F143
:10125000007F21D00EDCA8B1B0F1807F10D116E064
:10126000D4F8A420D8F8001021F460011143C8F884
:101270000010E7E7B0F1407F13D0B0F1806F10D0DD
:1012800001250FE0386840F40030386009E00021A3
:10129000201D01F08DFB03E00098002101F006FC09
:1012A00005466DB12E43206880011FD5A06CD8B1D2
:1012B00010280FD0202812D0302815D0012514E096
:1012C000D4F8A820D8F8001021F0E0611143C8F844
:1012D0000010E8E7386840F40030386004E002218C
:1012E000201D01F065FB05466DB12E432088C0042A
:1012F0002BD5E06DB0F5005F20D00DDCA0B1B0F5CE
:10130000805F0FD115E07A48A26C001F016821F0C0
:10131000300111430160E9E7B0F5405F13D0B0F54B
:10132000804F10D001250FE0386840F4003038605D
:1013300009E00021201D01F03BFB03E000980021A3
:1013400001F0B4FB054685B12E432088800429D5E1
:10135000206EB0F5403F23D010DC08B3B0F5803FDD
:1013600014D0B0F5003F0FD115E0E26DD9F80010B0
:1013700021F4E0411143C9F80010E6E7B0F5802FF1
:101380000ED0B0F5A02F0BD001250AE00121201DC1
:1013900001F00EFB03E00098012101F087FB0546F8
:1013A0008DB12E43208840042AD5D4F8AC00B0F18A
:1013B000405F23D010DC08B3B0F1805F14D0B0F1EF
:1013C000005F0FD115E0226ED9F8001021F4E02162
:1013D0001143C9F80010E5E7B0F1804F0ED0B0F12D
:1013E000A04F0BD001250AE00121201D01F0E0FAF9
:1013F00003E00098012101F059FB05466DB12E4331
:10140000208800041FD5E06ED8B1B0F1805F0ED007
:10141000B0F1005F10D0012514E0D4F8AC20D8F86A
:10142000001021F0E0411143C8F80010E8E73868E7
:1014300040F40030386004E00121201D01F0B8FACA
:1014400005466DB12E432068C0011ED5606CD0B139
:1014500001280ED0022811D0032814D0012513E052
:10146000E26ED9F8001021F040511143C9F8001084
:10147000E9E7386840F40030386004E00221201DBC
:1014800001F096FA054685B12E432068DFF85CB07E
:101490004002ABF11C0B1FD51648016841F4807166
:1014A0000160FFF703FC824610E01148626C001FE8
:1014B000016821F0030111430160E6E7FFF7F6FB45
:1014C000A0EB0A00642801D9032504E0094800685C
:1014D000C005F3D5C5B12E432078DFF814A0C007AE
:1014E0000AF1040A79D0A06F182805E02C440258AC
:1014F00050440258004802586DD05BDCC0B3082845
:101500005ED010285AD161E0DFF880A4B4F8B010A2
:10151000DAF8000001F4407100F44070884211D004
:10152000DAF80010DAF8002021F4407142F4803239
:10153000CAF80020DAF8002022F48032CAF800202D
:10154000CAF80010D4F8B000B0F5807F15D1FFF7CD
:10155000ADFB01900DE000BFFFF7A8FB0199411A18
:1015600041F28830814204D9032546F00306B3E7EF
:1015700031E0DAF800008007EED5D4F8B010C1F3FE
:101580000120032858460DD0016821F47C510160E8
:10159000B4F8B020DAF80010C2F30B021143CAF815
:1015A000001099E7FA4A036802EA111223F47C5109
:1015B0001143ECE720280ED028280CD001250BE0A1
:1015C0000121201D01F0F4F904E006E0009801215A
:1015D00001F06CFA05465DB12E43207880071ED5D8
:1015E000606F062819D2DFE800F0160C11161616E7
:1015F000A26FDAF8001021F038011143CAF8001088
:10160000EBE70121201D01F0D3F903E0009801214F
:1016100001F04CFA054675B100E001252E43207813
:1016200040071FD5D4F89000062819D2DFE800F053
:10163000160C11161616626FDAF8001021F0070169
:101640001143CAF80010EAE70121201D01F0B0F9AA
:1016500003E00098012101F029FA05469DB100E060
:1016600001252E43207880062BD5D4F88C00B0F1CC
:10167000405F24D011DC10B3B0F1805F15D0B0F121
:10168000005F10D116E0D4F89020D8F8001021F0B7
:1016900007011143C8F80010E4E7B0F1804F0ED005
:1016A000B0F1A04F0BD001250AE00021201D01F070
:1016B0007FF903E00098022101F0F8F905468DB1A9
:1016C0002E43207840062BD5D4F89800B0F5406F13
:1016D00024D011DC10B3B0F5806F15D0B0F5006FD9
:1016E00010D116E0D4F88C20DAF8001021F0E04197
:1016F0001143CAF80010E4E7B0F5805F0ED0B0F5F2
:10170000A05F0BD001250AE00021201D01F050F957
:1017100003E00098022101F0C9F905468DB12E437E
:10172000207800062BD5D4F89C00B0F5C04F24D00B
:1017300011DC10B3B0F5005F15D0B0F5804F10D1BB
:1017400016E0D4F89820D8F8001021F4E0511143A5
:10175000C8F80010E4E7B0F5004F0ED0B0F5204F08
:101760000BD001250AE00021201D01F021F903E042
:101770000098022101F09AF9054665B32E432078BE
:1017800000070BD5D4F88010B1F5805F2DD0DAF8C2
:10179000002022F440520A43CAF800202078C006F4
:1017A0000BD5D4F89410B1F5807F24D0D8F8002060
:1017B00022F440720A43C8F80020206800032CD5A8
:1017C000D4F8A000E8B1B0F5803F1FD0B0F5003FDD
:1017D00021D0012520E0D4F89C20D8F8001021F475
:1017E00060411143C8F80010C9E70098022101F0D8
:1017F0005DF90643D2E70098022101F057F906434C
:10180000DBE70021201D01F0D3F803E0009802215E
:1018100001F04CF9054685B12E432068400322D5DE
:10182000D4F88400B0F5801F11D0B0F5001F13D09C
:10183000B0F5401F15D0012514E0D4F8A020D8F849
:10184000001021F440311143C8F80010E5E7386872
:1018500040F40030386004E00098012101F026F9DE
:10186000054655B12E432068C0031CD5E06C70B10D
:10187000B0F5803F10D0012514E0D4F88420DAF8C8
:10188000001021F440111143CAF80010EBE738684A
:1018900040F40030386004E00221201D01F088F897
:1018A0000546C5B12E432068800004D5009802216A
:1018B00001F0FCF80643206880031BD5E06FB8B147
:1018C000B0F5807F10D0B0F5007F11D0B0F5407F2B
:1018D0000ED001250DE02D48E26C2438016821F47A
:1018E000803111430160DEE7386840F40030386031
:1018F000F5B32E432068C00207D5226FD9F8001037
:1019000021F000411143C9F800102068C00008D53B
:10191000D4F8B420DBF8001021F480411143CBF857
:1019200000102068800207D5A26ED9F8001021F0BF
:1019300080711143C9F80010206840000CD5DBF815
:10194000001021F40041CBF80010DBF80010D4F8AF
:10195000B8201143CBF800102068002807DA0B48A4
:10196000226D2438016821F040511143016000E0EC
:1019700003E07EB10120BDE8FC9FE26FDAF80010C1
:1019800021F440711143CAF80010B3E770440258C3
:10199000CFFFFF000020EEE72DE9F047DFF8C4910C
:1019A00004460E46D9F8000000F00700B0420CD201
:1019B000D9F8001021F007013143C9F80010D9F817
:1019C000000000F00700B04272D12078DFF8988163
:1019D000800707D5E268D8F8001021F00F01114305
:1019E000C8F800102078C00767D05F49A368D8F80E
:1019F0000020183922F470621A43C8F80020606889
:101A000002281CD003281DD0096801281DD04907D1
:101A1000002963DA544D083D296821F0070101438C
:101A20002960FFF743F96168074641F288300229CF
:101A300014D0032920D0012982462AD039E0096830
:101A40008903E5E709688901E2E7C905E0E700BF26
:101A5000FFF72CF9C11B514501D926E082462868C1
:101A6000C0F3C2000228F3D127E000BFFFF71EF940
:101A7000C11B514501D918E082462868C0F3C20055
:101A80000328F3D119E000BFFFF710F9C11B51453E
:101A90000BD82868C0F3C2000128F5D10DE000BFC3
:101AA000FFF704F9C11B514503D90320BDE8F087B6
:101AB00014E0286810F0380FF2D1D9F80010484629
:101AC00001F00701B1420BD9016821F00701314350
:101AD0000160006800F00700B04201D00120E5E796
:101AE0002078400707D52269D8F8001021F070014E
:101AF0001143C8F8001021781B48001D090705D5BF
:101B00006269016821F07001114301602178C90602
:101B100005D5A269016821F4E061114301602078D4
:101B2000800607D51048E2690830016821F070018D
:101B30001143016000F064F8D8F800104FF480728F
:101B400092FAA2F201F47061B2FA82F2D140074A2D
:101B5000515CC840064908600F20FFF7C3F8002019
:101B6000A4E700000020005218440258C05A0008A0
:101B70000000002010B5FFF763F9084901230A6847
:101B800093FAA3F3064902F00F02B3FA83F3DA40A3
:101B9000044B9A5CD040086010BD00001844025805
:101BA00004000020C05A000810B5FFF7E3FF074902
:101BB0001022096892FAA2F201F07001B2FA82F2E0
:101BC000D140034A515CC84010BD00001C4402587B
:101BD000C05A000810B5FFF7CDFF07494FF48072D7
:101BE000096892FAA2F201F4E061B2FA82F2D140FD
:101BF000024A515CC84010BD1C440258C05A00083B
:101C00004749F0B547480968454B103B11F0380487
:101C100009D00111082C04D0434A102C0BD0182CE9
:101C20000BD00846F0BD19688906FBD51968C1F3C9
:101C3000C101C840F0BD1046F0BD394CDFF8E0C02E
:101C40001834261D0CF1240C2768351D2468DFED9F
:101C5000370AB7EE001A3668DCF800C017F0030741
:101C600006F00106C4F30514CCF3CC0C1CFB06F6FD
:101C700000EE106AB8EE400A09D0012F01D0022F01
:101C80003BD02868B1FBF4F1C0F308003AE01968D2
:101C9000890615D51A682968C2F3C102C1F3080183
:101CA000D04001EE901AB0FBF4F0F8EE611A40EE6D
:101CB000201A00EE100A71EE810AB8EE400A0BE01D
:101CC0002968B0FBF4F0C1F3080101EE901AB8EEF8
:101CD000612A01EE900A1BE020EE200A2868C0F37A
:101CE0004620401C00EE900AF8EE600A80EE201AB2
:101CF000BCEEC10A10EE100AF0BD2868B2FBF4F188
:101D0000C0F3080001EE900AB8EE612A01EE901AC5
:101D100000EE202AB8EE610A72EE010ADCE700004C
:101D2000104402580090D00340787D010000003933
:101D30002DE9F05FFD4C0546007841F28838DFF868
:101D4000EC93103CF94FC00709F118094CD03868E2
:101D5000C0F3C20002281AD03868C0F3C2000328BA
:101D600005D1D9F8000000F0030002280FD0686800
:101D7000B0F5803F12D010B1B0F5A02F18D0206878
:101D800020F480302060206820F4802009E0206862
:101D9000800329D5686800286CD025E0206840F4CD
:101DA00080302060686890B1FEF780FF06460AE048
:101DB000206840F480202060F0E700BFFEF776FF47
:101DC000811B414575D820688003F7D50CE0FEF7EC
:101DD0006DFF064605E000BFFEF768FF811B414529
:101DE000F0D820688003F7D42878D04E0C3E8007C6
:101DF00069D538684FF47C3B10F0380F13D0386841
:101E0000C0F3C200032803D1D9F8000080070AD02C
:101E1000E86870B3216821F0190101432160FEF7E1
:101E200045FF82462EE02068400702D5E86800287A
:101E3000B2D0E968206820F0190008432060FEF75E
:101E400035FF824606E000BFFEF730FFA0EB0A0038
:101E50000228B7D820684007F6D5296932689BFA6E
:101E6000ABF0B0FA80F0814022F47C30084330605F
:101E700029E016E0BEE000BFFEF718FFA0EB0A0065
:101E800002289FD820684007F6D5286932689BFA57
:101E9000ABF1B1FA81F1884022F47C310143316029
:101EA00011E0206820F001002060FEF7FFFE82466E
:101EB00006E0EFE0FEF7FAFEA0EB0A0002288FD85A
:101EC00020684007F6D42878C00647D538684FF018
:101ED000F84BC0F3C200012815D03868C0F3C20027
:101EE000032805D1D9F8000000F0030001280AD02A
:101EF000E8690028206822D040F080002060FEF7CA
:101F0000D5FE82460CE02068C0050CD5E869802823
:101F100070D108E0FEF7CAFEA0EB0A00022898D8AC
:101F20002068C005F6D5286A32689BFAABF1B1FA91
:101F300081F1884022F0F841014331600EE020F049
:101F400080002060FEF7B2FE064604E0FEF7AEFE1B
:101F5000801B022895D82068C005F7D42878000790
:101F600029D572486969643000298246016811D018
:101F700041F001010160FEF799FE064605E000BF51
:101F8000FEF794FE801B022899D8DAF8000080073B
:101F9000F6D510E021F001010160FEF787FE06464C
:101FA00005E000BFFEF782FE801B022872D8DAF837
:101FB00000008007F6D42878800625D5A869002877
:101FC000206810D040F480502060FEF76FFE064677
:101FD00005E000BFFEF76AFE801B02285AD8206881
:101FE0008004F7D510E020F480502060FEF75EFEFC
:101FF000064606E0D4E000BFFEF758FE801B02282C
:1020000048D820688004F7D4287840074DD5DFF8F9
:1020100020A1DAF8001041F48071CAF80010FEF730
:1020200045FE064605E000BFFEF740FE801B642823
:1020300030D8DAF80000C005F6D53C4EA868603606
:1020400001280AD008B1052811D0306820F001001D
:102050003060306820F0040002E0306840F0010099
:102060003060A86890B1FEF721FE82460AE0306831
:1020700040F004003060F0E7FEF718FEA0EB0A0124
:10208000414507D830688007F6D50EE0FEF70EFE12
:10209000824607E083E000BFFEF708FEA0EB0A01DE
:1020A00041457CD830688007F6D4686AE8B339685F
:1020B000C1F3C201032973D00228206820F0807088
:1020C000206003D0FEF7F2FD054683E0FEF7EEFD4B
:1020D000064604E0FEF7EAFD801B022877D8206858
:1020E0008001F7D4EB6A40F2F332D9F800104FF4D4
:1020F000FE0755F8286F914341EA03113143C9F8AF
:102100000010287B4FF0FE4C084EB5F808804002C6
:102110002B8A20362A7DA8F10108311DA0F5007018
:1021200080B25B1EC8F3080804E056E01044025871
:1021300000480258521E07EA034340EA08000CEA2E
:1021400002674FF6F8721843384330600B6892FA12
:10215000A2F72E6AB7FA87F722489343BE4033436B
:102160000B600168AA6921F00C011143016001684C
:10217000EA6921F0020111430160016841F48031F4
:102180000160016841F400310160016841F480217F
:102190000160016841F001010160206801E016E082
:1021A0001DE040F080702060FEF780FD054604E0F1
:1021B000FEF77CFD401B022809D820688001F7D576
:1021C0000BE000BFFEF772FD401B022802D903207E
:1021D000BDE8F09F20688001F4D40020F8E70120DA
:1021E000F6E700002C44025870B5040015460E4670
:1021F00003D094F8450010B107E0012070BD002025
:1022000084F84400204600F021F8206804F1080119
:10221000FEF7CAFBA26831462068FEF713FCE36AAA
:102220002946D4E90102FEF79FFBA268206806490F
:1022300050F8223043F0010340F82230086840F0A3
:1022400000400860002070BD004000527047401EF2
:10225000B0F1807F10B501D3012010BD4FF0E02414
:1022600060610F21601701F0EBFA0020A0610721E7
:10227000216110BD10B5040003D094F83D0010B1E9
:1022800007E0012010BD002084F83C00204600F04B
:102290000CF8022084F83D002068211D00F0E0FDCC
:1022A000012084F83D00002010BD7047022180F815
:1022B0003D10012201680B8843F001030B8080F878
:1022C0003D200020704710B5040003D094F8790039
:1022D00010B107E0012010BD002084F878002046EE
:1022E00000F026F8242084F879002068016821F0A5
:1022F00001010160204600F0A7FE0128EBD0606BD1
:1023000010B1204600F00EFE2068416821F4904193
:1023100041602068816821F02A018160206801689D
:1023200041F0010101602046BDE8104000F05EBEB2
:102330007047000030B59BB04C216846FEF700F8AE
:102340001C2113A8FDF7FCFF0222164D0123009566
:102350000521154CCDE91312CDE915230020179264
:10236000189220211990CDE90140CA010390CDE9CE
:1023700004010690CDE9080213AA07900A901146BD
:102380000B900C900D900E900F906846FFF72CFF6D
:10239000002804D04FF4927104A0FEF7E0FA1BB0BD
:1023A00030BD000000400052044100522E2E5C2E31
:1023B0002E5C557365725C6273705C7372635C62F1
:1023C00073705F666D635F696F2E6300304810B590
:1023D00086B0016841F008010160016801F0080160
:1023E0000591016841F010010160016801F01001E0
:1023F0000591016841F040010160016801F0400170
:102400000591016841F080010160016801F08001DF
:102410000591016841F480710160006800F48070EA
:1024200005901B480C38016841F480510160006838
:102430000DF1040C03244CF2B37300F480500590AA
:102440000220009301210C2204928CE81300114811
:102450006946FEF731FB4FF6807000900E486946E2
:10246000FEF72AFB0D4869460094FEF725FB4FF462
:102470007F4000900A486946FEF71EFB40F2CF609D
:10248000009008486946FEF717FB06B010BD000033
:10249000E0440258000C025800100258001802587C
:1024A000001C02580020025803490968014201D06B
:1024B00001207047002070473000002000290549A6
:1024C0000A6805D002430A6008680349086070473B
:1024D0008243F8E730000020001000602DE9F0474B
:1024E000B6B0012700200597239005A8FEF7F8FD58
:1024F0004F4C206840F001002060206800F001008F
:102500003490206840F001002060206800F0010055
:10251000349047481030016841F0100101600068B4
:102520004FF0020807260297424D7A0200F0100091
:102530003490CDE900284FF0030A6946CDE903A69F
:102540002846FEF7B9FA4FF4806969462846CDF867
:1025500000900496FEF7B0FA012200212520FEF734
:102560003DFC2520FEF72DFC334D0C2300224FF4BB
:10257000E131284602F018F8286A40F0400028624D
:10258000288B40F008002883286840F0200028604D
:10259000206840F002002060206800F002003490C3
:1025A000206840F002002060206800F002003490B3
:1025B0001F480830016841F48021016000686946C5
:1025C0001E4C00F480203490CDF800902046CDE9D8
:1025D00003A6CDE90187FEF76FFAE8146946049671
:1025E00000902046FEF768FA032200212720FEF71C
:1025F000F5FB2720FEF7E5FB114C0C2300224FF4DE
:102600001651204601F0D0FF0D490D4820311830F9
:102610000A6842F040020A60018841F00801018026
:10262000206840F02000206036B0BDE8F087000050
:10263000E044025800000258001001400004025813
:10264000004800402DE9F0410828074614D24FF019
:1026500000054FF0FF062C46204600F023F810B18D
:102660006D1C2646EDB2641CE4B2082CF4D3012D97
:1026700016D1BE4211D013E005D1002000F012F8AF
:1026800070B1012006E009280AD1012000F00AF803
:1026900030B1022000F006F810B10120BDE8F08151
:1026A0000020FBE7084951F8302001EBC001106918
:1026B0008A88104000D001208979814201D101200F
:1026C0007047002070470000E85A00087FB5FEF709
:1026D00057FB01258DF80F5000248DF80E50122065
:1026E0008DF8080003268DF80B608DF800504FF030
:1026F00010518DF80D4068468DF80A5001918DF803
:1027000001408DF809408DF80C40FEF70BFB0F20BF
:102710008DF808008DF80F5071078DF80B60684632
:102720008DF80E408DF800508DF80D408DF80A4060
:1027300001918DF801508DF809408DF80C40FEF79D
:10274000F1FA0420FEF72AFB7FBDFEE770477047D1
:1027500070B523A001F064F8314A111D081D1668F8
:102760000D68046830492F480968B1FBF0F12FA0CB
:1027700001F056F839A033462A46214601F050F8B8
:102780003BA001F04DF816A001F04AF839A13CA099
:1027900001F046F83FA140A001F042F843A146A055
:1027A00001F03EF849A001F03BF854A001F038F8E0
:1027B00054A001F035F859A001F032F85CA001F006
:1027C0002FF862A001F02CF867A001F029F86EA0A4
:1027D00001F026F8BDE8704001A001F021B800002A
:1027E0002A2A2A2A2A2A2A2A2A2A2A2A2A2A2A2A49
:1027F0002A2A2A2A2A2A2A2A2A2A2A2A2A2A2A2A39
:102800002A2A2A2A2A2A2A2A2A2A2A2A2A2A2A2A28
:102810002A2A2A2A2A2A2A2A2A2A2A2A2A0A0D007F
:1028200000E8F11F40420F00000000200D0A435055
:1028300055203A2053544D333248373433584948A1
:10284000362C204247413234302C20D6F7C6B53AD8
:102850002025644D487A0D0A0000000055494420A7
:102860003D2025303858202530385820253038581C
:102870000A0D000056372DC5DCC2EDB5C6000000BC
:102880002A20C0FDB3CCC3FBB3C62020203A2025AC
:10289000730D0A00312E30002A20C0FDB3CCB0E603
:1028A000B1BE2020203A2025730D0A003230313885
:1028B0002D31322D313200002A20B7A2B2BCC8D54A
:1028C000C6DA2020203A2025730D0A002A2048412C
:1028D0004CBFE2B0E6B1BE20203A2056312E332E56
:1028E00030202853544D3332483778782048414CB3
:1028F00020447269766572290D0A00002A200D0AAB
:10290000000000002A205151202020203A2031329E
:102910003935373434363330200D0A002A20CDFAC9
:10292000CDFA20203A2061726D666C790D0A0000A4
:102930002A20456D61696C203A2061726D666C7960
:102940004071712E636F6D200D0A00002A20CEA207
:10295000D0C5B9ABD6DABAC53A2061726D666C796A
:102960005F636F6D200D0A002A20CCD4B1A6B5EAB2
:102970003A2061726D666C792E74616F62616F2EA0
:10298000636F6D0D0A0000002A20436F7079726931
:10299000676874207777772E61726D666C792E6325
:1029A0006F6D20B0B2B8BBC0B3B5E7D7D30D0A0086
:1029B0002DE9F0473C4E044689464FF0000A306846
:1029C000C04380070AD0384D283D286820F0806039
:1029D0002860FEF76BF90746A84608E00120BDE82D
:1029E000F08700BFFEF762F9C01B022855D8D8F85F
:1029F00000000001F6D4206831684FF4FE0C4FF05F
:102A0000FE4721F47C3141EA00303060207AA6880C
:102A1000A3894002244D761E23495B1E227C10357B
:102A2000091DA0F5007080B2521EC6F3080630439F
:102A30000CEA0343184307EA02621043286008685F
:102A4000626920F0C000104308600868A26920F0A5
:102A5000200010430860B9F1000F11D00868B9F1E7
:102A6000010F11D040F400100860D8F8000044466F
:102A700040F08060C8F80000FEF718F905460EE047
:102A8000086840F40020EFE740F48010ECE700BF56
:102A9000FEF70CF9401B022801D903209FE72068AC
:102AA0000001F5D550469AE7284402582DE9F04731
:102AB0003C4E044689464FF0000A3068C043800708
:102AC0000AD0384D283D286820F080502860FEF755
:102AD000EDF80746A84608E00120BDE8F08700BFF2
:102AE000FEF7E4F8C01B022855D8D8F80000800093
:102AF000F6D4208831684FF4FE0C4FF0FE4721F0E9
:102B00007C7141EA00503060207AA688A389400297
:102B1000244D761E23495B1E227C1835091DA0F525
:102B2000007080B2521EC6F3080630430CEA03431D
:102B3000184307EA0262104328600868626920F4BB
:102B40004060104308600868A26920F400701043D8
:102B50000860B9F1000F11D00868B9F1010F11D068
:102B600040F080700860D8F80000444640F0805083
:102B7000C8F80000FEF79AF805460EE0086840F431
:102B80008000EFE740F40000ECE700BFFEF78EF8AE
:102B9000401B022801D903209FE720688000F5D55B
:102BA00050469AE7284402580B4800B587B00168A0
:102BB00041F00201016000680121002200F00200E2
:102BC0000590032304208DE80F0004486946FDF7B3
:102BD00073FF07B000BD0000E04402580004025833
:102BE000704700000149042008807047180402580B
:102BF00001490420088070471A04025870470000F9
:102C000010B5FEF759F804484078002803D0BDE815
:102C1000104000F003B810BD1400002070B51B4C2C
:102C20000122606820B16068401E606000D122709F
:102C30000021174B01EB410003EB800045684DB1CB
:102C400045686D1E456005D142700578012D01D1A2
:102C500085684560491CC9B20429EBD3A0680025EA
:102C60006FF00041401CA060A068884200D1A560C0
:102C700001F08CFCA078401CC0B2A0700A2804D3DC
:102C8000A570BDE8704001F07FBC70BD140000204D
:102C90003C010020294830B59DB0016821F00401B5
:102CA000016026480C300024016841F44041016075
:102CB000016801F440411B9101688904FCD50220A0
:102CC00003940121009105230794C2030192A021DE
:102CD0000990CDE90A030422CDE90C100825CDE9BD
:102CE0000E20CDE910546846FFF722F800B1FEE748
:102CF00040201A903F210301CDE916500322CDE96F
:102D0000180313AB13A883E816000421FEF744FE52
:102D100000B1FEE70A48016841F0800101600848FF
:102D2000F430016841F002010160006800F0020027
:102D30001B90FDF7B9FE1DB030BD00000C480258D5
:102D4000004402581D4AF0B51D49146800201C4B70
:102D500044F47004146010330A681A4C42F0010203
:102D60000A6018600D68164A25400D601832131D60
:102D70001C1D134D1060283518602A1D2060131D7E
:102D80001C1D2860251D10602A1D1860131D206061
:102D90001C1D28601060186020600A680124084B20
:102DA000064FE606084D6033803F22F480220A6019
:102DB0001860C5F808413E60F0BD000088ED00E0F5
:102DC000004402587FEDF6EA0080005170B54FF0E4
:102DD0008044224D2069E16810F0020F01F00201E9
:102DE00008D039B14FF6FD702061E1680140E16023
:102DF000E86880472069E16810F0040F01F00401E1
:102E000008D039B14FF6FB702061E1680140E16004
:102E1000286980472069E16810F0080F01F0080177
:102E200008D039B14FF6F7702061E1680140E160E8
:102E3000686980472169E06811F0100F00F0100008
:102E40000BD0002809D04FF6EF702061E1680140F7
:102E5000E160A869BDE87040004770BD1400002023
:102E60002DE9F047274B4FF0804A274D02889842C2
:102E7000264E274F274C09D0504507D0A84205D0F1
:102E8000B04203D0B84201D0A04205D1D1F804C06D
:102E900022F070024CEA0202DFF87CC0DFF87C808E
:102EA0009842DFF87C900FD050450DD0A8420BD04F
:102EB000B04209D0B84207D0A04205D0604503D047
:102EC000404501D0484503D1CD6822F440722A43E1
:102ED0008D8A22F080022A43028098428A68C26268
:102EE0000A88028507D0A04205D0604503D040453E
:102EF00001D0484501D1098A018601214161BDE81F
:102F0000F08700000000014000040040000800407D
:102F1000000C00400004014000400140004401401A
:102F20000048014090F83410C90706D00168836B4F
:102F30004A6822F400321A434A6090F83410890734
:102F400006D50168C36B4A6822F480321A434A608E
:102F500090F83410490706D50168036C4A6822F4DA
:102F600080221A434A6090F83410090706D5016898
:102F7000436C4A6822F400421A434A6090F83410C5
:102F8000C90606D50168836C8A6822F480521A4308
:102F90008A6090F83410890606D50168C36C8A6887
:102FA00022F400521A438A6090F83410490611D571
:102FB0000168036D4A6822F480121A434A60016D69
:102FC000B1F5801F06D10168436D4A6822F4C00242
:102FD0001A434A6090F83410090606D50168826DDC
:102FE000486820F40020104348607047F8B5002678
:102FF0000446C667FDF75AFE054620686FF07E4717
:103000000068000708D500222B464FF40011204627
:10301000009700F08DFA60B92068006840070AD573
:1030200000222B464FF480012046009700F080FAE2
:1030300008B10320F8BD202084F8790084F8786076
:1030400084F87A000020F8BD2DE9F04F04460268AC
:10305000816887B0C369D4E90465806A3143F84E5A
:103060001D4313682943DFF8DC9308438025334070
:1030700000210343136020680F46E368426822F48E
:1030800040521A4342602368A0694B4501D0226A2E
:103090001043A26AB2F1005F03D1D4E90B26324398
:1030A0001043D3F808C0DFF8A083E84EE84A0CEAE2
:1030B000080C4CEA000CC3F808C02068D4F824C0FF
:1030C000C36A23F00F0343EA0C03C3622068B042D3
:1030D00010D1126802F03802182A74D005DCCAB385
:1030E000082A7AD0102A47D179E0202A7BD0282AD2
:1030F0007CD17AE0D74B984209D1126802F00702DE
:10310000062A73D2DFE802F053696B6D6F71D24B00
:10311000984209D1126802F00702062A66D2DFE857
:1031200002F0465C5E606264CC4B984209D1126842
:1031300002F00702062A59D2DFE802F0394F515354
:103140005557C74B98420BD1126802F00702062A66
:103150004CD200E00EE0DFE802F02A40424446484C
:10316000C04B984209D1126802F03802182A38D0B0
:10317000BBDCB4E74FF0010538E0BB4B984209D106
:10318000126802F00702062A30D2DFE802F01026A9
:10319000282A2C2EB54B98420BD1126802F0070258
:1031A000062A23D2DFE802F003191B1D1F21002588
:1031B0001CE048451AD1A64A121D126802F0070207
:1031C000062A13D202E00CE007E00CE0DFE802F090
:1031D000030507090B0D022508E0042506E040253C
:1031E00004E0082502E0102500E02025A04EDFF8CD
:1031F00084A24845DFF880B27DD1102D31D006DCA5
:10320000022D09D0042D0AD0082D2FD111E0202D38
:1032100029D0402D2AD107E0FDF72CFE13E06846A7
:10322000FDF73EFE01980EE003A8FDF7C9FE0498E5
:1032300009E0DBF800005946800610D50968C1F3A3
:10324000C1012AFA01F0002811D06168894601EB1A
:10325000410181420AD8B0EB093F07D808E0504647
:10326000F3E78648F1E74FF40040EEE7012759E124
:10327000102D4FF000085BD006DC022D11D0042D7C
:1032800020D0082D04D13AE0202D57D0402D1ED05B
:1032900001277B4AA0F540719142E7D82168C860B8
:1032A00040E1FDF7E7FD626A0023414636F812204F
:1032B000FDF70EF86268090241EA10610346500802
:1032C0001B0216E06846FDF7EBFD019803E003A83A
:1032D000FDF776FE04980023616A36F8112019463E
:1032E000FCF7F6FF626803461D0E50081B0245EA14
:1032F0000121181800E036E041EB080114E0DBF88A
:1033000000005946800609D509680023C1F3C101B0
:103310002AFA01F0616A36F8112015E0606A00238C
:1033200036F8102050460FE00023FCF7D1FFB0E73D
:10333000606A002336F81020504805E0606A0023D8
:1033400036F810204FF400400021FCF7C1FF024680
:103350004FEA5900130E120210184A4643EA01219F
:1033600041EB0801E0E7E3694FF40042934257D193
:10337000082D2BD005DC95B1012D13D0042D06D1DD
:1033800018E0102D3DD0202D43D0402D18D001271E
:10339000226821F00F00C1F3420108439CE0FEF7D0
:1033A00003FC01E0FEF716FC0146606A36F81020C7
:1033B00060682BE06846FDF773FD626A019922E0C0
:1033C00003A8FDF7FDFD626A04991CE0DBF800101C
:1033D0005846626A890608D5036836F81220606884
:1033E000C3F3C1032AFA03F110E036F81220606833
:1033F000BAFBF2F1490001EB5001B1FBF0F081B2F0
:10340000C6E71E49626A606836F81220B1FBF2F125
:10341000F0E7616A606836F81110B2FBF1F1E9E794
:10342000082D5BD02EDC55B1012D46D0042D7FF444
:103430001DAF6846FDF734FD626A01992DE039E061
:10344000F369FFCF000C0058FFF4FF11001001409A
:10345000544402580044004000480040004C0040E2
:10346000005000400014014000780040007C004003
:10347000D05A00080090D0030044025800093D00D3
:10348000FFFC0F00102D3ED0202D3FD0402DCED17F
:1034900003A8FDF795FD626A0499D4E9003036F877
:1034A0001220B1FBF2F101EB5001B1FBF0F080B260
:1034B000D86037E0FEF778FB01E0FEF78BFB0146B2
:1034C000606A36F81030D4E90020B1FBF3F101EB6B
:1034D0005001B1FBF0F080B2D06023E0DBF80020B7
:1034E0005946636A920608D50D68616836F813304C
:1034F000C5F3C1042AFA04F20CE036F8133061680F
:10350000BAFBF3F208E0094A636A00E0636A6168A3
:1035100036F81330B2FBF3F202EB5102B2FBF1F1D9
:1035200089B2C16007B03846BDE8F08F00093D00A0
:103530002DE9F041984617460E460446069D1DE0CB
:10354000681C1BD02DB1FDF7B1FBA0EB0800A84211
:1035500014D92168202000220B6823F4D0730B605B
:1035600021688B6823F001038B6084F8790084F86C
:103570007A00032084F87820BDE8F0812068C069D3
:1035800036EA000004D00020B842D9D00020F3E78A
:103590000120F9E7014800F009B800006C010020A3
:1035A000014800F003B80000980900202DE9F0411F
:1035B000044600680026C56907688168A90615D514
:1035C000808CE28AA168C0B28854E18A491C8AB220
:1035D000E282E1898A4200D3E682628B8A4202D289
:1035E000618B491C6183616A01B18847280617D540
:1035F000380615D5A08A002863D0012084F8280059
:10360000618A60682268405C1085608A401C80B2D4
:103610006082A189884200D36682A08A401EA0826F
:10362000680613D5780611D5A08AE8B3618A606868
:103630002268405C1085608A401C80B26082A1894B
:10364000884200D36682A08A401EA0822068016A58
:1036500041F0010101622068016A41F0020101624A
:103660002068016A41F0040101622068016A41F0AA
:10367000080101622068016A41F0100101622068BE
:10368000016A41F0400101622068016A41F48071E1
:1036900001622068016A41F4007101622068016AD8
:1036A00041F40031016200E016E02068016A41F453
:1036B000801101622068016A41F020010162BDE8C9
:1036C000F0812068016821F08001016020680168B4
:1036D00041F040010160A3E72068016821F040014A
:1036E0000160206A00B1804784F82860AEE778B5B1
:1036F000002325E0012484F31088848AADF800407B
:10370000002484F31088BDF800508489AC421FD98E
:10371000CC5C068A4568AC55012484F31088048A81
:103720008589641CA4B20482AC4201D300240482C3
:10373000848A641C8482002484F310885B1C9BB2FE
:103740009342D7D30068016841F08001016078BDE1
:10375000BDF80050AC42CDD1046825682D06C9D40F
:10376000256845F080052560C4E700001B494FF43B
:103770008063194A002010B50A6001F12C024A60EA
:1037800001F22C428A608B81CB8108824882C882F8
:103790000883134C488301F62C028882C8610862B2
:1037A000486281F8280001F65801C2E9004101F59C
:1037B000806191609381D38110825082D082108386
:1037C000508390820749D1610749116207495162CC
:1037D00082F8280010BD0000001001406C0100209C
:1037E00000480040E52B0008F12B0008E12B000801
:1037F000FEE7000005484FF400720549816605495F
:10380000416600F16C0101F0FBBB0000E4110020F7
:1038100019380008A95A00080146002000F080BFAE
:103820000FB4054B10B503A9044A029800F0EAF85A
:1038300010BC5DF814FB00002D4700088800002034
:10384000090700284FEA116104DB00F1E02080F84D
:103850000014704700F00F0000F1E02080F8141D04
:10386000704702E008C8121F08C1002AFAD1704749
:103870007047002001E001C1121F002AFBD17047F0
:103880002DE9FF5F82B00021DDE90430020DDDF893
:1038900040B0034318D044F61050A2F2FF32424326
:1038A0001514119801281FD0A5EB0B00401C5FEAEE
:1038B000000A4FF000064E4FDFF83891B0465046F0
:1038C00015D5CAF1000413E0119801244AA3012878
:1038D00001D16FEA0B010298119AC0E90031C0E9E9
:1038E000024206B0BDE8F09FCBF10000DFE70446DE
:1038F0000021404A491842EB0450CDE9001012E083
:10390000E00707D032463B4640464946FCF723FED7
:103910008046894632463B4610461946FCF71BFE58
:1039200006460F466410002CEAD1DDE90401DDE90A
:103930000023BAF1000F06DAFCF70DFE42464B46B3
:10394000FCF709FE05E0FCF778FE42464B46FCF723
:1039500074FE04460E460022284BFCF7F5FE03D801
:103960004FF0FF30014607E00022254B204631464C
:10397000FCF74AFDFCF7D0FE102409E0002C0ADB1E
:103980000A220023FCF7A4FC039B30321A55641E64
:1039900050EA0102F2D1641C039AC4F111031444E9
:1039A000119A012A03D0012208430DD10AE00843ED
:1039B00004D000204FF0110B119072E7A3EB0B0520
:1039C0006D1E0DE05B4504DD4FF0000205F10105C1
:1039D00004E003DA4FF00002A5F10105002AECD063
:1039E00002981199C0E90231C0E9004579E7000069
:1039F000000014400000F03F300000000000F043E1
:103A00000000E03F2DE9FF4F95B09B4689460646F2
:103A100000250FE2252877D100242746F84A012106
:103A2000059400E0044316F8013F203B01FA03F03F
:103A30001042F7D130782A2811D06FF02F03307858
:103A4000A0F13002092A16D8059A44F0020402EBCC
:103A5000820203EB42021044761C0590EFE759F80E
:103A6000042B0592002A03DA504244F400540590D6
:103A700044F00204761C30782E2816D116F8010F77
:103A800044F004042A280DD06FF02F023078A0F102
:103A90003003092B09D807EB870302EB4303C71850
:103AA000761CF3E759F8047B761C30786C280FD02D
:103AB00006DC4C2817D068280DD06A2814D104E001
:103AC000742810D07A280FD10DE044F400140AE0D5
:103AD00044F4801401E044F440147278824202D12C
:103AE00004F58014761C761C307866280BD013DC25
:103AF000582877D009DC002875D04528F6D046280C
:103B0000F4D047281AD19DE118E0632835D0642805
:103B100079D0652812D195E1702873D008DC672828
:103B2000F1D069286FD06E280DD06F2806D1B5E08E
:103B300073282CD0752875D0782874D05A461799D8
:103B400090476D1C75E1C4F30250022809D0032888
:103B50000DD0D9F8001004280DD00D6009F104092A
:103B600067E1D9F80010EA17C1E90052F6E7D9F881
:103B700000100D80F2E70D70F0E719F8041B8DF8C6
:103B8000001000208DF80100EA46012003E059F8FA
:103B900004AB4FF0FF3061074FF0000102D40DE09D
:103BA00008F101018846B9420FDA8045F8DB1AF8BE
:103BB00008100029F4D108E008F10101884681428B
:103BC000FADB1AF808100029F6D105985B46A0EB3D
:103BD000080721463846179A00F094FA284400EB6B
:103BE000080507E04DE029E10DE01AF8010B5A46FF
:103BF00017999047B8F10108F7D25B46214638463D
:103C0000179A13E142E00A220092C4F302524FF0E5
:103C1000000A022A08D059F804CB032A4FEAEC71B3
:103C20000AD00DE029E02AE009F1070121F007029E
:103C3000F2E802C1914609E00FFA8CFC4FEAEC7100
:103C4000042A03D14FFA8CFC4FEAEC71002907DA01
:103C50000A460021DCF1000C61EB02012D2202E09A
:103C6000220504D52B228DF80420012203E0E2076F
:103C700001D02022F7E7904659E00A2102E0102205
:103C80000DE010214FF0000A00910BE010224FF0E0
:103C9000000A44F004040827009203E008224FF0D1
:103CA000000A0092C4F30252022A05D059F804CB4C
:103CB0000021032A08D009E009F1070121F00702D9
:103CC000F2E802C1914605E01FFA8CFC042A01D1FA
:103CD0000CF0FF0C4FF00008220728D5702806D002
:103CE000009B83F0100353EA0A0305D00EE0402244
:103CF0008DF80420012208E05CEA010206D030229F
:103D00008DF804208DF8050002229046009B83F078
:103D1000080353EA0A030AD15CEA010201D16207EF
:103D200005D530228DF804204FF001087F1E582859
:103D300004D034A003900EA802900DE036A0F9E75D
:103D400053466046009AFCF7C3FA84460398825CA7
:103D50000298401E029002705CEA0100F0D10298C5
:103D600006A9081A00F1200A600702D524F480345D
:103D700000E00127574502DDA7EB0A0000E0002024
:103D800000EB0A01009005984144401A0590E003B9
:103D900006D45B462146179A059800F0B3F905440E
:103DA000002706E001A85A46C05D179990476D1C90
:103DB0007F1C4745F6DBE0030CD55B462146179A8E
:103DC000059800F09FF9054404E030205A46179901
:103DD00090476D1C0099481E00900029F5DC08E012
:103DE000029802995A460078491C02911799904707
:103DF0006D1CBAF10001AAF1010AF1DC65E10000D5
:103E000009280100303132333435363738396162B0
:103E10006364656600000000303132333435363774
:103E200038394142434445460000000000F058F94B
:103E30000544761C307800287FF4ECAD19B0284694
:103E4000BDE8F08F620700D4062709F1070222F0CF
:103E5000070CFCE80223E14603F000485FEA080C87
:103E600002D00FF2702C0DE05FEA045C02D50FF275
:103E7000682C07E05FEAC47C02D00FF2602C01E0FE
:103E8000AFF2700C4FF0FF3823F00043CDF850C074
:103E900065280CD006DC452809D046281DD04728C7
:103EA0003DD13DE0662818D067287ED138E000215A
:103EB000112F01DB112000E0781CCDE9000106A9DB
:103EC0000EA8FFF7DDFCDDE90F010E9A039100213A
:103ED000009207F1010A04914DE04FF00040009775
:103EE000CDE9011006A90EA8FFF7CAFCDDE90F0213
:103EF00003920E9B11990022DDF80CA0009304920E
:103F000011B9791C00EB010AB7EB0A0004D4C0F127
:103F1000FF3007F1010A0490AAEB0700019044E08A
:103F2000012F00DA01270021112F01DD112000E00F
:103F30003846CDE9000106A90EA8FFF7A1FCDDE98E
:103F40000F010E9A0391002104910092BA462107B5
:103F50000CD40399514500DA8A46BAF1010F05DD08
:103F6000009AAAF10101515C302908D0B84202DA66
:103F700010F1040F06DA0121CDE9011015E0AAF1D4
:103F80000101E9E7002805DC049901440491AAEB4A
:103F9000000102E0411C514500DD8A460499401AA7
:103FA000401C01904FF000400290200704D401987B
:103FB000504501DBCDF8048000208DF84F000298B9
:103FC0000DF14F07B0F1004F25D02B200E90029835
:103FD0004FF0020800280CDA404202902D200E908B
:103FE00007E00A210298FCF7DAF93031029007F86D
:103FF000011DB8F10001A8F10108F2DC02980028C7
:10400000EFD1791E0E980870307800F0200040F053
:10401000450007F8020D12A8C01B00F1070814980C
:10402000007800B1012000EB0A01019801EBE0717A
:1040300005984144401A401E0590E00306D45B46B3
:104040002146179A059800F05DF805441498007809
:1040500018B15A46179990476D1CE00324D55B466A
:104060002146179A059800F04DF805441CE0049885
:10407000002807DBDDE90301884203DD0098405C8E
:10408000179901E0179930205A469047049805F196
:104090000105401C04900198401E019004D12E207F
:1040A0005A46179990476D1CBAF10001AAF1010A0E
:1040B000DDDC05E017F8010B5A46179990476D1C97
:1040C000B8F10001A8F10108F4DC5B462146179A1B
:1040D0000598ABE62D0000002B000000200000003A
:1040E0002DE9F041044600251E461746880404D4F5
:1040F00005E039462020B0476D1C641EF9D52846DE
:10410000BDE8F0812DE9F041044600251E469046A9
:10411000C80301D5302700E02027880404D505E036
:1041200041463846B0476D1C641EF9D52846BDE8A7
:10413000F0810000042807D200EB4001054800EBA5
:1041400081004178012901D0002070470021417091
:10415000012070473C010020002810B511D0012833
:1041600000D10220012181F31088064C00216060FB
:10417000217081F3108800BF00F05EF820780128DC
:10418000FAD110BD1400002070B50646294800EB96
:1041900006143046FEF756FA0028207906EB46034F
:1041A0004FF005014FF0000531D0052801D22171F3
:1041B00070BD0A2802D2401C207170BDA07A06EBA7
:1041C0004606761C20B90120A072F0B200F0CEF9AC
:1041D00021890029F1D0E088884208D2401C89B2A8
:1041E00080B2E0808842E8D1DB1CD8B20BE0E07AF4
:1041F0000028E2D0207BE17A401CC0B220738842C4
:10420000DBD32573F0B2BDE8704000F0AFB90528EC
:1042100001D921710BE010B1401E207107E0A07A96
:10422000012804D19B1CA572D8B200F09FF9E5804B
:10423000257370BD8C000020704710B5FEF746FA5C
:10424000FCF71CFBFCF740FDFEF724FD00F06CF8CA
:1042500000F0F6F800F028F900F004F8BDE810408E
:1042600000F0DEB810B5FEF7B1F8FEF763F80448C9
:1042700040F61472034902600068086010BD000037
:10428000300000200010006010B592B04021684658
:10429000FCF756F819484FF08042016841F00101DF
:1042A00001600068164C00F001001090154803688A
:1042B00000200092411E5B08B3FBF4F48023CDE99B
:1042C0000310641EA2B2CDE90120CDE905036846C2
:1042D000FDF7D0FF20B14FF40C710BA0FCF73FFBB2
:1042E000022200211C20FCF779FD1C20FCF769FD4F
:1042F0006846FDF7DBFF12B010BD0000E84402582D
:1043000040420F00000000202E2E5C2E2E5C5573C4
:1043100065725C6273705C7372635C6273705F740D
:10432000696D65722E63000010B500F04BF8BDE8B2
:10433000104000F001B80000204830B587B0016897
:1043400041F002010160016801F002010091016881
:1043500041F004010160016801F00401009101686D
:1043600041F040010160016801F0400100910168E5
:1043700041F080010160016801F080010091016855
:1043800041F48071016000680D4D00F48070009070
:104390000020029003210446CDE9030105EBC4008F
:1043A00001A98088019055F83400FCF785FB641C56
:1043B000E4B2082CF2D307B030BD0000E04402584C
:1043C000E85A00081549002270B5642310468A7225
:1043D0000225CA72A1F1A0040A7304EB0011461C65
:1043E000F0B20B810A280D718A72CA720A73F4D373
:1043F00006226421032000F0CBF806226421042069
:1044000000F0C6F806226421052000F0C1F806225B
:10441000BDE870406421104600F0BAB82C010020BD
:10442000012010B500F053F8022000F050F80320EE
:1044300000F04DF8BDE81040042000F048B800003E
:10444000154B0020014630B44A1C01EB4104D1B2A7
:1044500003EB840250609060507003F8240004293C
:10446000F2D30E4A4FF47A711268B2FBF1F1491E91
:10447000B1F1807F09D24FF0E0225161F021084B69
:1044800083F8141D072190611161012005494870CE
:1044900030BCFFF7F9BE00003C0100200000002006
:1044A0000FE000E01400002010B5FFF75FF9FEF701
:1044B00015F8BDE81040FEF777BB10B50024204684
:1044C000FFF762FE641CE4B20A2CF8D310BD012889
:1044D00009D002280AD003280BD004280CD10121CE
:1044E0004002FDF7EBBF01210802FAE70121480273
:1044F000F7E701218802F4E77047012809D0022874
:104500000BD003280DD004280FD100214002FDF765
:10451000D5BF00214FF48070F9E700214FF40070FF
:10452000F5E700214FF48060F1E77047012810B5EE
:104530000CD002280DD003280ED0042815D1440237
:104540002046FDF7B1FF50B1002109E04FF480741F
:10455000F6E74FF40074F3E74FF48064F0E70121CD
:104560002046BDE81040FDF7A9BF10BD0549CA7A35
:104570008854C87A401CC0B2C8720A2801D30020EF
:10458000C87270472C010020FFF797BF70470000EA
:10459000044B10B503EB001000240181C2720473B8
:1045A00010BD00008C00002010B5A0B000248DE8E4
:1045B0001300CDE90342CDE9053407946846089419
:1045C00009940A940B940C940D94FDF77CFE00283A
:1045D00004D003A040F22A31FCF7C1F920B010BD8D
:1045E0002E2E5C2E2E5C557365725C6273705C734C
:1045F00072635C6273705F756172745F6669666F27
:104600002E63000070B504280ED310A14FF4A772DA
:1046100016A0FFF705F91A4A0CA11AA0FFF700F936
:1046200020A0FFF7FDF8FEE7012282F310881E4A62
:1046300000EB4004002302EB84000125416081600F
:10464000437002F8245083F3108870BD2E2E5C2E28
:104650002E5C557365725C6273705C7372635C622E
:1046600073705F74696D65722E6300005B442F5335
:1046700059535D202825733A256429200000000045
:10468000375B00084572726F723A2066696C65206C
:1046900025732C2066756E6374696F6E20257328F0
:1046A000290D0A000D0A00003C01002010B50C463F
:1046B000FCF722F9002820D00246012080F3108860
:1046C000508B002181F310880028084615D0138BE9
:1046D0009168C95C2170012181F31088118B491CFC
:1046E00089B21183D389994200D31083508B401E25
:1046F0005083002080F31088012010BD70B515464E
:104700000E46FCF7F9F8040009D0E06900B18047D3
:104710002A4631462046BDE87040FEF7E8BF70BD2E
:1047200013B5012201A9FFF7E9FF1CBD10B5C1B205
:1047300004460020FFF7F4FF204610BDFFF77DFD83
:10474000FEF706F81DA0FFF76BF81FA0FFF768F84B
:104750002CA0FFF765F8FFF74DF80120FFF7CDFE1D
:104760006420FFF7F9FC0120FFF7B1FE6420FFF79A
:10477000F3FC64210020FFF745FF01204FF4FA719C
:10478000FFF740FFFFF758FD2E4801F081F80020A9
:10479000FFF7D0FC10B10120FFF7C8FE0120FFF7A2
:1047A000C9FC0028EED00220FFF7C0FE0320FFF76F
:1047B000BDFE0420FFF7BAFEE4E70000B2D9D7F748
:1047C000CCE1CABE3A0D0A00312E20C6F4B6AFD2F3
:1047D000BBB8F6D7D4B6AFD6D8D7B0C8EDBCFEB606
:1047E000A8CAB1C6F7A3ACC3BF3130306D73B7AD43
:1047F000D7AAD2BBB4CE4C454431BACD4C45443295
:104800000D0A0000322E20D4D9C6F4B6AFD2BBB800
:10481000F6D7D4B6AFD6D8D7B0C8EDBCFEB6A8CAC6
:10482000B1C6F7A3ACC3BF3530306D73B7ADD7AAEF
:10483000D2BBB4CE4C454433BACD4C4544340D0ABA
:1048400000000000E4110020012100F047B80A78C0
:1048500042B14B7803F00F03082B03D003681B7899
:104860001A4208D090F86000C00702D14878C0060C
:1048700001D5002070474FF0FF30704710B500F0B1
:1048800067FA002805D00349896BBDE8104001F0A4
:10489000D1B810BD3400002070B505468089E98983
:1048A000401A04B204E0A96E20208847641E24B296
:1048B000002CF8DC297B2846BDE8704000F06EB87B
:1048C00010B500F045FA002803D0BDE8104000F014
:1048D0005DBC10BD4FF0FF31AFF300802DE9F0411A
:1048E0000446481C03D00023E28912B103E00123EF
:1048F000FAE701294FD0A089824201D14D1C4AD04C
:1049000082424FF0000501D1012901D0184613E081
:104910002169401E80B2521EE281A0810D542046C2
:10492000BDE8F041012100F039B82769421E461C5C
:104930003944475C30B28F54A289E189521A8242CD
:10494000F3DCA089A0F10100A0812BB9E089401E11
:10495000E081A16E08208847A18920694554B4F9F7
:104960000E5005E02069A16E405D88476D1C2DB298
:10497000A089A842F6DCA16E20208847A089E189A1
:10498000401A401C05B204E0A16E082088476D1E45
:104990002DB2002DF8DCBDE8F081000070B50C46AA
:1049A000054603E003A1284601F044F8611ECCB29D
:1049B000F8D270BD082008004FF0FF3100F09CBA1B
:1049C00010B5044600F006F82046BDE8104001216D
:1049D00000F0C2BF70B504468089002835D0216937
:1049E00000251E4E0D5494F86000C00721D02046CB
:1049F00000F0D2FA204600F0E5FCE08EE5810028C8
:104A0000A58122D016A1204601F014F8A26D002342
:104A10006169204600F078FD010004D02046BDE821
:104A2000704000F015BDB1692046BDE8704001F04E
:104A300001B8206881682069FBF794FC30B1716B84
:104A4000204600F0F7FFA581E58170BD94F8600075
:104A500040F0010084F860003168F1E73400002084
:104A60000D0A0000411C00200A785C2A01D0104683
:104A7000704749786E290FD004DC3029F8D06229BC
:104A800004D105E0722905D0742907D00846704783
:104A9000082070470D2070470A2070470920704792
:104AA000F0B5017800230A270446012518462D2970
:104AB0001E4608D000212144002291F800C0BCF11C
:104AC000300F04D01EE001214FF0FF35F3E74A78A4
:104AD000782A07D0582A05D0622A05D0422A03D066
:104AE00002220FE003220DE001220BE091F800C04A
:104AF000BCF12E0F06D191F801C0BCF1000F01D01E
:104B0000042211E011F801CBBCF1000FEED1012A13
:104B100008D0022A03D0032A06D1102703E0082771
:104B2000012301E002270223691C234402D0002153
:104B30005C181FE00121FBE72E2905D0A1F130030D
:104B4000092B03D8D9B20FE0012612E0A1F16103CD
:104B5000052B01D8573904E0A1F14103052B02D8F8
:104B60003739C9B200E0002100FB071006EB8603CD
:104B70005E00641C21780029DED1042A13D196B18D
:104B800000EE100A00EE906A01EE105AB8EE400AEC
:104B9000F8EE600AF8EEC11A80EE201A21EE210A22
:104BA00010EE100AF0BD6843F0BD2DE9F041044657
:104BB000087827280AD02D2803D0A0F13002092A2E
:104BC0000CD8BDE8F0410846FFF76ABF4A78002AD2
:104BD000F3D0BDE8F0410846FFF744BF24284FF06A
:104BE000000608D0002817D00D464FF000072228F5
:104BF0002C4613D01DE04A78002AF5D0A26D002380
:104C0000491C204600F080FC010004D02046BDE88D
:104C1000F04100F0B1B83046BDE8F0816C1C25468B
:104C200007E05C280BD022280FD0E8557F1CBFB2CC
:104C3000641C20780028F4D12846EE55ECE7601E6D
:104C4000FFF710FF641CE855F0E7EE55EEE72DE99D
:104C5000F0478CB0994615460C462021824603A8A1
:104C6000FBF76EFBA0786E1E00F00F07B74200DC6A
:104C7000374600250DF10C0808E009EB8500416876
:104C80005046FFF792FF48F825006D1CB542F4DB53
:104C9000082F3CD2DFE807F004090D12181E263059
:104CA000A06880470CB0BDE8F087A16803988847EA
:104CB000F8E7DDE90301A2689047F3E703ADA368D5
:104CC00095E807009847EDE703ADA46895E80F0065
:104CD000A047E7E7079803AD0090A46895E80F00A8
:104CE000A047DFE7DDE9070103ADCDE9000195E865
:104CF0000F00A468A047D5E707AB03AD93E8070012
:104D00008DE8070095E80F00A468A047CAE74FF0B8
:104D1000FF30C7E7C06870470C4A3023002110B548
:104D20004C1C5354E1B20929FAD3417801F00F0128
:104D3000012903D9072901D9082901D8406810BDE4
:104D40004068024900F0DCFD004810BDD811002089
:104D50000849002051F8202032B192F860209207D3
:104D600002D551F820007047401C00B20528F1DB45
:104D700000207047C4110020487800F00F02002086
:104D8000921E062A06D2DFE802F003060A0D0D0F76
:104D90008868006870478868B0F9000070478868C4
:104DA00000787047886870478868416809B1006872
:104DB00008470020704700002DE9F05F5FEA010915
:104DC00005464CD0A86B1824002710F47F4F03D061
:104DD00000246FF0FF070AE010F47F0F02D0294F84
:104DE000082404E0000E02D010244FF07F474FF05B
:104DF000000AD5F85880564635E000BF08EB061B80
:104E00009BF8010000F00F0009282AD159462846D6
:104E1000FFF71DFD28BBDBF80410AA6B01EA0700B1
:104E200090421ED1FF2009FA04F300FA04FC01EAC3
:104E30000C01994215D11A434FF00009AA6334B10D
:104E4000A4F10802DBF804109040014209D108EBFC
:104E50000610816809B128468847C5F838A0BDE822
:104E6000F09F761C36B2B5F85C00B042C6DCB9F1F2
:104E7000000FF4D049462846C5F838A0BDE8F05FD9
:104E800000F098BA0000FFFF70B50B460546FFF72B
:104E90005FFF04002AD0012D24D027DDA26D5968C0
:104EA0004FF0000300F030FB05461148C16A204670
:104EB00000F0C0FD2846FFF72FFF0146204600F016
:104EC000B9FD0CA1204600F0B5FD2846FFF722FFF2
:104ED0000146204600F0AEFD2046BDE8704005A129
:104EE00000F0A8BDBDE8704000F050B970BD0000F2
:104EF000340000200D0A000070B5002904464FF070
:104F000000051BDDB4F95430B4F85010B4F8520069
:104F100004F15004A3F101028142A280A4F15004E3
:104F200001D90A4600E002465242934212DC814215
:104F300000D908464042A4F854000BE009DAB4F85E
:104F40005400401C00B2A4F85400002802DDA4F86C
:104F5000545070BD2046FFF79FFCB4F95400C0B117
:104F6000B4F8522005211044401D90FBF1F201FBE2
:104F7000120004EB8000C16B206900F0FBFB0028ED
:104F8000A081E6D0E08120462169BDE8704000F0B4
:104F900051BDA581E58170BD70B50446B0F85000E3
:104FA0000025A4F8545058B1B4F85200216900B952
:104FB000052004EB8000806BFBF7D4F900281ED09D
:104FC000B4F85200216904EB8000C06B00F0D2FB02
:104FD00020B1B4F85200401CA4F85200B4F85000BC
:104FE000401C80B2A4F85000052802D90520A4F87E
:104FF0005000B4F85200052801D3A4F8525070BDF7
:1050000070B504460020062594F86030B2FBF5F236
:10501000216143F00103A081E081A4F85400A4F8C9
:105020005000A4F85200206084F86030A286421C30
:10503000A38E04EB800510B2052803FB0212EA637D
:10504000F5DB11481149A065091A08091049A4F8AF
:105050005C00002051F820209AB1401C00B20528C5
:10506000F8DBA26D00230BA1204600F04DFA0146AB
:10507000204600F081FA2046BDE87040012100F092
:105080006BBC41F82040ECE7105F0008406000086E
:10509000C41100206C6574746572000070B5828E56
:1050A00004468089521E90420EDB2C4841682046FF
:1050B00000F0C0FC0121204600F04EFC2169204692
:1050C000BDE8704000F0B6BCE2890023824210D1F6
:1050D000256900F10102A2812954A2892069835423
:1050E000E08900F10100E0810846A16EBDE8704052
:1050F000084731D2A0EB020000B207E0E689A0F138
:10510000010225693544AE5C465510B20028F5DC35
:10511000E0892569421CE2812954A0892169401C4B
:1051200080B2A0810B54E089401E05B205E02069E1
:10513000A16E405D88476D1C2DB2A089A842F6DCA7
:10514000E18980B2401A05B204E0A16E08208847C8
:105150006D1E2DB2002DF8DC70BD00003400002063
:1051600010B5FFF7F5FD002803D0BDE8104000F0B2
:10517000A9B810BD10B50446C089002805D0A16E9D
:1051800008208847E089401EE08110BD2DE9F041EC
:10519000876D06460F488168304600F04BFC0024BE
:1051A00012E000BF07EB0415687800F00F0001283B
:1051B00008D829463046FFF74AFB18B92946304639
:1051C00000F00AF8641C24B2B6F85C00A042E9DCE6
:1051D000BDE8F081340000202DE9F04104460E4680
:1051E0000846FFF799FD0146204600F023FCC0F178
:1051F000160005B2002D00DC0425A16E2020884792
:105200006D1E2DB2002DF8D171782B4801F00F01E1
:10521000012901D8016C0CE0072901D8416C08E094
:10522000082901D8816C04E0092901D8C16C00E08B
:10523000016D204600F0FEFB20A1204600F0FAFBA5
:1052400001270725307807FA05F1084201D07820B8
:1052500000E02D20A16E88476D1E6DB2002DF1DAA1
:1052600016A1204600F0E6FB3046FFF753FD054649
:10527000A06E0026D0B111E0A16E6D1C8847761C8F
:10528000B6B2242E0AD3687840B1A16E2E2088478A
:10529000A16E2E208847A16E2E208847287828B13D
:1052A0000D2803D00A2801D0242EE5D32046BDE8DE
:1052B000F04103A100F0BEBB34000020202000001C
:1052C0000D0A00002DE9F041876D0646104841693E
:1052D000304600F0AFFB002414E000BF07EB0415DC
:1052E000687800F00F0008280AD9092808D829464C
:1052F0003046FFF7ACFA18B929463046FFF76CFF85
:10530000641C24B2B6F85C00A042E7DCBDE8F08182
:10531000340000202DE9F041876D064610480169F0
:10532000304600F087FB002414E000BF07EB0415B3
:10533000687800F00F0007280AD9082808D82946FD
:105340003046FFF784FA18B929463046FFF744FF84
:10535000641C24B2B6F85C00A042E7DCBDE8F08132
:10536000340000202DE9F041876D06461048C168E1
:10537000304600F05FFB002413E000BF07EB04158C
:10538000687800F00F00801E052808D829463046AE
:10539000FFF75DFA18B929463046FFF71DFF641C78
:1053A00024B2B6F85C00A042E8DCBDE8F081000061
:1053B0003400002090F8602022F0040280F8602081
:1053C000FFF76CBEF0B5002301241A4619464D1CA8
:1053D00000EB810629B208297261F8DB0021C28640
:1053E00026E023B905696E5C202E1DD0E6B1056963
:1053F0006E5C222E01D11BB10023012C02D00AE0E9
:105400000123FAE7C78E00240D443E4600EB8707D0
:10541000761CC6867D610669755C5C2D06D14D1CC7
:10542000765D1EB1A9B201E001246A54491C89B21B
:1054300085898D42D5D8F0BDC1898289914206D235
:1054400003694A1CC281826E595C08461047704746
:105450002DE9F047044690F860000F4640F0020145
:1054600084F8601004F11409787801070BD000F07B
:105470000F0001282BD0811E052936D83946204639
:1054800000F00EF937E04FF00008454617E000BF86
:1054900004EB850670690178222904D180F8008028
:1054A0007069401C7061FAF756FF80B27169401E46
:1054B0000A5C222A01D101F800806D1CADB2E08E99
:1054C000A842E5D8BA684946E08E904705E0E28EEA
:1054D0004B4639462046FFF7BAFB014678788006EE
:1054E00009D4204600F066FA05E0082803D13946C1
:1054F000204600F041F894F8600020F0020084F8A3
:105500006000BDE8F08700002DE9F0470646806D99
:105510008A469946101A1546B6F85C100024A1EB8D
:10552000101087B21BE000BF05EB041898F80100CB
:1055300000F00F00092810D041463046FFF787F9E8
:1055400058B94046FFF7E8FB0146B9F100000BD01F
:1055500002465046FAF714FF50B1641CA4B2BC4294
:10556000E2D30020BDE8F0875046FAF7FBFEF3E7F0
:1055700005EB0410F6E7000070B50160044688688A
:105580000D4600B3FAF7E7FEE8B1E08E022804D337
:10559000A169A868FAF7E6FEA8B194F8600020F0C7
:1055A000010000BF0B4D84F860002046A96B00F09D
:1055B00041FA94F86000C0070AD029682046BDE887
:1055C000704000F037BA94F8600040F00100E9E75D
:1055D00070BD0000340000202DE9F0410E46074662
:1055E000FFF7B6FB041E16D0A26D00233946FFF765
:1055F0008BFF0E4D010010D0487800F00F00801E88
:1056000006280CD33946204600F014FA696A204671
:1056100000F010FA0020BDE8F081A96AF7E73246F1
:105620002046BDE8F04100F003B80000340000203F
:1056300070B50C464978054618484B0601D5016AF5
:1056400018E001F00F01891E062921D2DFE801F0E0
:105650000306090C1116A068026019E0A068028018
:1056600016E0A068027013E0A068114600F082F80E
:105670000EE0C169284600F0DDF909E0A068836802
:1056800033B1006810B11146984701E010469847C1
:1056900021462846BDE8704000F002B834000020E2
:1056A000FEB523A20C46064607CA8DE80700214630
:1056B0003046FFF761FB61680546304600F0BAF9F5
:1056C0001EA1304600F0B6F9607800F00F00052802
:1056D00023D06946284600F0EBF8C0F10B006C4679
:1056E0000119304600F0A6F915A1304600F0A2F9E4
:1056F000302000214A1C605411B20B29FADB6946A4
:10570000284600F0FDF86946304600F093F90EA1F6
:10571000304600F08FF92846FEBD0CA1304600F05F
:1057200089F92946304600F085F908A1ECE7000028
:10573000303030303030303030303000203D2000DC
:105740002C203078000000000D0A0000220000002C
:1057500030B504460020024605E0AB4209D1401CAA
:10576000521C80B292B2A35C002B02D08D5C002D43
:10577000F3D130BD0246002010B502E0441C1354A2
:10578000A0B20B5C002BF9D10021115410BD000018
:105790002DE9F05F044680894FF000094D46B4F8CA
:1057A000348030B12269CA46564602F800A0A76D7F
:1057B0003BE02046FFF7EAFC2046BDE8F05F012110
:1057C00000F0CAB807EB061120468B46FFF73FF8FA
:1057D00048BB5846FFF7A0FA01462069FFF7B8FF1B
:1057E000A18988421FD1D5B1012D03D127A120461F
:1057F00000F020F907EB091120468946FFF7ECFC81
:105800005846FFF789FA83464846FFF785FA594616
:10581000FFF79EFF8045414600D8084680466D1C34
:105820001FFA86F9ADB2761C36B2B4F85C00B0420D
:10583000C8DC002D27D0012D02D12046FFF72CF81F
:1058400007EB09100646FFF767FA01462069FFF7E4
:1058500091FF012DA0810AD931462046FFF7BCFCFB
:105860000121204600F078F84046A4F80C80216918
:1058700082B201F802A0A089E08120462169BDE83A
:10588000F05F00F0D7B8BDE8F09F00000D0A0000FF
:1058900038B5416E0446002908D06846884700287C
:1058A00004D19DF800102046FFF786FA38BD0000AD
:1058B00030B5002803464FF00B0200DA43420025C2
:1058C000CD720A240AE000BF93FBF4F5521ED2B257
:1058D00004FB153593FBF4F330358D54002BF3D1D5
:1058E000002802DA4FF02D0002E005D14FF0300021
:1058F000A2F10102D2B28854C2F10B0040B230BD15
:1059000000230B7208220AE000F00F03092B01D9D3
:10591000573300E03033521ED2B200098B540028B6
:10592000F2D1C2F1080040B270470121FFF7E4BA9A
:1059300010B5FFF70DFA002803D0BDE81040FFF7BF
:10594000E9BC10BD10B5FFF703FA002803D0BDE88D
:105950001040FFF707BD10BD10B5044690F8600079
:10596000C00719D019B10EA1204600F063F82068D5
:105970004168204600F05EF80AA1204600F05AF87F
:10598000A16801B908A1204600F054F807A12046FB
:10599000BDE8104000F04EB80548016BF7E7000085
:1059A0000D0A00003A0000002F0000002420000033
:1059B00034000020FEB516A20D46064607CA8DE843
:1059C000070016A1304600F035F869462846FFF773
:1059D0006FFFC0F10B006C460119304600F02AF849
:1059E00011A1304600F026F830200022511CA054AE
:1059F0000AB20B2AFADB69462846FFF781FF69469F
:105A0000304600F017F80AA1304600F013F8FEBD4A
:105A100030303030303030303030300052657475D6
:105A2000726E3A20000000002C2030780000000048
:105A30000D0A000070B50646806E00240D46002851
:105A400009D004E0B16E6D1C8847641CA4B22878AC
:105A50000028F7D1204670BDF0B585B00DF1280CB7
:105A60009CE8F0008DE8F80013460A46014603A0C2
:105A7000FDF7D6FE05B00020F0BD0000696E707520
:105A80007420696E743A2025642C2025642C20250E
:105A9000642C2025642C2025642C2025642C2025B2
:105AA000642C2025640D0A000146002010B5FEF785
:105AB000FDFD012802D04FF0FF3010BD002010BDC9
:105AC00000000000010203040102030406070809A4
:105AD000010002000400060008000A000C0010008B
